{
  "contractName": "SplitPayment",
  "abi": [
    {
      "inputs": [
        {
          "internalType": "address",
          "name": "_owner",
          "type": "address"
        }
      ],
      "payable": false,
      "stateMutability": "nonpayable",
      "type": "constructor"
    },
    {
      "constant": false,
      "inputs": [
        {
          "internalType": "address payable[]",
          "name": "to",
          "type": "address[]"
        },
        {
          "internalType": "uint256[]",
          "name": "amount",
          "type": "uint256[]"
        }
      ],
      "name": "send",
      "outputs": [],
      "payable": true,
      "stateMutability": "payable",
      "type": "function"
    }
  ],
  "bytecode": "0x608060405234801561001057600080fd5b506040516103963803806103968339818101604052602081101561003357600080fd5b8101908080519060200190929190505050806000806101000a81548173ffffffffffffffffffffffffffffffffffffffff021916908373ffffffffffffffffffffffffffffffffffffffff16021790555050610302806100946000396000f3fe60806040526004361061001e5760003560e01c8063a645ff5f14610023575b600080fd5b61016d6004803603604081101561003957600080fd5b810190808035906020019064010000000081111561005657600080fd5b82018360208201111561006857600080fd5b8035906020019184602083028401116401000000008311171561008a57600080fd5b919080806020026020016040519081016040528093929190818152602001838360200280828437600081840152601f19601f820116905080830192505050505050509192919290803590602001906401000000008111156100ea57600080fd5b8201836020820111156100fc57600080fd5b8035906020019184602083028401116401000000008311171561011e57600080fd5b919080806020026020016040519081016040528093929190818152602001838360200280828437600081840152601f19601f82011690508083019250505050505050919291929050505061016f565b005b6000809054906101000a900473ffffffffffffffffffffffffffffffffffffffff1673ffffffffffffffffffffffffffffffffffffffff163373ffffffffffffffffffffffffffffffffffffffff16146101c857600080fd5b805182511461023f576040517f08c379a00000000000000000000000000000000000000000000000000000000081526004018080602001828103825260208152602001807f746f206d7573742062652073616d65206c656e67746820617320616d6f756e7481525060200191505060405180910390fd5b60008090505b82518110156102c85782818151811061025a57fe5b602002602001015173ffffffffffffffffffffffffffffffffffffffff166108fc83838151811061028757fe5b60200260200101519081150290604051600060405180830381858888f193505050501580156102ba573d6000803e3d6000fd5b508080600101915050610245565b50505056fea265627a7a72315820614610bbb68001fb5471b953daf05b175583398c3483f425552c14bbbe3c8a3164736f6c63430005100032",
  "source": "pragma solidity >=0.4.21 <0.7.0;\n\ncontract SplitPayment {\n  address owner;\n  \n  constructor(address _owner) public  {\n      owner = _owner; \n  }\n  \n  function send(address payable[] memory to, uint[] memory amount ) \n    payable \n    public \n    ownerOnly {\n    require(to.length == amount.length, 'to must be same length as amount');\n    for(uint i = 0; i < to.length; i++) {\n      to[i].transfer(amount[i]);\n    }\n  }\n  \n  modifier ownerOnly() {\n    require(msg.sender == owner);\n    _;\n  }\n}",
  "sourcePath": "/var/www/html/eattheblocks-pro-master/vueDap30/day7_split_payment/contracts/SplitPayment.sol",
  "compiler": {
    "name": "solc",
    "version": "0.5.16+commit.9c3226ce.Emscripten.clang"
  },
  "schemaVersion": "3.3.3",
  "updatedAt": "2021-01-19T20:13:49.458Z",
  "networkType": "ethereum",
  "devdoc": {
    "methods": {}
  },
  "userdoc": {
    "methods": {}
  }
}